:100000000C9434000C9451000C9451000C94510049
:100010000C9453000C9451000C9451000C9451001A
:100020000C9451000C9451000C9451000C9451000C
:100030000C9451000C9451000C9451000C945100FC
:100040000C9451000C9451000C9451000C945100EC
:100050000C9451000C9451000C9451000C945100DC
:100060000C9451000C94510011241FBECFEFD8E026
:10007000DEBFCDBF11E0A0E0B1E0E4EFFDE002C0E3
:1000800005900D92A832B107D9F721E0A8E2B1E0BE
:1000900001C01D92A935B207E1F70E94C5030C9477
:1000A000F8060C9400001F920F920FB60F921124C5
:1000B0002F933F934F935F936F937F938F939F9370
:1000C00080914101909142019093290180932801F0
:1000D00020913E0130913F01309358012093570108
:1000E000329905C0109242011092410106C041E0D0
:1000F00050E05093420140934101339905C0109262
:100100003F0110923E0106C041E050E050933F0194
:1001100040933E01409141015091420148175907D7
:1001200041F460913E0170913F016217730709F439
:10013000C1C061E0609340014115510541F56091F6
:100140003E0170913F016115710509F05BC081307E
:100150009105C9F440910101413059F440910601E3
:10016000509107014F5F5F4F509307014093060185
:100170000AC040910401509105014F5F5F4F5093B9
:1001800005014093040121303105E1F52BC04130D8
:10019000510509F08FC060913E0170913F016130BF
:1001A000710509F068C00097C9F440910101413020
:1001B00059F440910601509107014F5F5F4F5093F2
:1001C0000701409306010AC04091040150910501C6
:1001D0004F5F5F4F50930501409304012115310596
:1001E00009F049C080910101813031F4809106010C
:1001F00090910701019718C0809104019091050129
:1002000001971CC06130710509F054C00197D9F005
:10021000232B09F04FC080910101813051F480916E
:1002200006019091070101969093070180930601C2
:1002300041C08091040190910501019690930501C0
:100240008093040137C080910101813051F4809185
:100250000601909107010197909307018093060191
:10026000D7CF8091040190910501019790930501EA
:1002700080930401CDCF672BE9F4892BB9F48091E9
:100280000101813051F4809106019091070101979D
:10029000909307018093060109C080910401909119
:1002A00005010197909305018093040121303105E8
:1002B00009F4B1CF9F918F917F916F915F914F9191
:1002C0003F912F910F900FBE0F901F901895FC013A
:1002D0008081880F918191118F5F29E0829FC001F9
:1002E00011246AE070E00E94F103605E7F4F70931A
:1002F00003016093020108952091020130910301EE
:1003000080910401909105018217930714F42B9AB0
:1003100001C02B98209102013091030180910601C8
:10032000909107012817390714F42C9A08952C98F6
:100330000895CF9380E00E943902809101018130BD
:1003400011F483E401C088E48093000180910501E9
:100350008F93809104018F93809107018F938091F7
:1003600006018F9388E091E09F938F931F92C4E1E1
:10037000CF9383E491E09F938F930E94190483E4C9
:1003800091E00E947D0280E10E94390220910001EB
:10039000822F992787FD90959F932F93809103013A
:1003A0008F93809102018F9386E191E09F938F93C9
:1003B0001F92CF938AE291E09F938F930E9419043A
:1003C0008AE291E00E947D02109240018DB79EB7B3
:1003D00044960FB6F8949EBF0FBE8DBF80E2CF91BA
:1003E0000C9439024A9905C082E0809301010E9471
:1003F00099014B9905C081E0809301010C9499010A
:100400000895E8E6F0E0808182608083ECE6F0E029
:1004100080818C6080838AB1806F8AB984B18B615E
:1004200084B98AB1837F8AB98BB18C608BB988B16A
:100430008C6088B908959BB19F709BB99BB1807FF8
:10044000892B8BB92998299A299A29980895CF93AD
:10045000C82F28980E941B028C2F8295807F0E94B3
:100460001B028FE39FE10197F1F700C00000CF91DD
:100470000895803110F4805801C080550C942702F3
:100480008FE59AEE0197F1F700C00000289880E30D
:100490000E941B028FE19EE40197F1F700C000006B
:1004A00080E30E941B028FED91E00197F1F700C0FD
:1004B000000080E30E941B0280E20E941B028FE387
:1004C0009FE10197F1F700C0000088E20E94270237
:1004D0008FE00C942702CF93C82F289A0E941B020A
:1004E0008C2F8295807F0E941B028FE39FE10197F2
:1004F000F1F700C00000CF910895CF93DF93EC0196
:100500008991882319F00E946B02FACFDF91CF9175
:100510000895CF92DF92EF92FF920F931F934115B0
:10052000510521F40115110509F4A0C094EA909336
:10053000BC009091BC0097FFFCCF9091B900987FD0
:10054000983009F068C0982F9E7F9093BB0094E884
:100550009093BC009091BC0097FFFCCF9091B900A4
:10056000987F983121F0903209F055C051C0FB01BD
:10057000460F571F64E8E417F50791F091919093A7
:10058000BB006093BC009091BC0097FFFCCF9091A2
:10059000B900987F983279F39033E9F590E338C049
:1005A000F901020F131F24E8E017F10779F0919188
:1005B0009093BB002093BC009091BC0097FFFCCFB0
:1005C0009091B900987F983279F3E6CFC114D104A5
:1005D00009F44AC020E194EA9093BC009091BC00D9
:1005E00097FFFCCF9091B900987F921314C081605F
:1005F0008093BB0084E88093BC008091BC0087FF9F
:10060000FCCF9091B900987F903439F0983419F468
:1006100084E98093BC00892F2FC0F70184EC91E01E
:10062000C916D10491F08093BC009091BC0097FF53
:10063000FCCF9091B900987F21E0C21AD108903583
:1006400051F79091BB009193EACF84E88093BC006E
:100650008091BC0087FFFCCF9091B900987F9835BE
:10066000D1F68091BB00808390E0D2CFC114D10439
:1006700011F028E0B0CF80E01F910F91FF90EF9034
:10068000DF90CF900895CF92DF92EF92FF920F9379
:100690001F93CF93DF931F92CDB7DEB78EEE898382
:1006A000C12CD12CE12CF12C00E010E020E030E056
:1006B00041E050E0BE016F5F7F4F80E90E948902F8
:1006C0000F90DF91CF911F910F91FF90EF90DF90EE
:1006D000CF900895CF92DF92EF92FF920F931F93E6
:1006E000CF93DF931F92CDB7DEB72AEA298322E0AA
:1006F000C22ED12C7C0100E010E020E030E041E08F
:1007000050E0BE016F5F7F4F80E90E9489020F9029
:10071000DF91CF911F910F91FF90EF90DF90CF90DD
:100720000895CF92DF92EF92FF920F931F93CF9392
:10073000DF9300D0CDB7DEB71092B90089E4809383
:10074000B8008CEA898382E08A83C12CD12CE12C09
:10075000F12C00E010E020E030E042E050E0BE018B
:100760006F5F7F4F80E90E9489020F900F90DF91A9
:10077000CF911F910F91FF90EF90DF90CF90089550
:100780001092B9008093B8000895CF93DF9300D002
:10079000CDB7DEB70E9491030E9443030E9401027D
:1007A0000E944002789481E00E942702CE010196C7
:1007B0000E946A03CE0101960E9467010E9499017E
:1007C000CE0101960E946A03CE0101960E94670144
:1007D0000E94F2010E947C0180914001813081F7EA
:1007E000EDCF97FB072E16F4009407D077FD09D0C4
:1007F0000E94050407FC05D03EF4909581959F4F1B
:100800000895709561957F4F0895AA1BBB1B51E118
:1008100007C0AA1FBB1FA617B70710F0A61BB70B70
:10082000881F991F5A95A9F780959095BC01CD0115
:100830000895AEE0B0E0EFE1F4E00C94CF060D894E
:100840001E898F89988D26E02C831A83098397FF50
:1008500002C080E090E801979E838D83AE01455EE3
:100860005F4F698D7A8DCE0101960E9449044D81BA
:100870005E8157FD0AC02F813885421753070CF45B
:100880009A01F801E20FF31F10822E96E4E00C9417
:10089000EB06ACE0B0E0EFE4F4E00C94C1067C01C0
:1008A0006B018A01FC0117821682838181FFBDC121
:1008B000CE0101964C01F7019381F60193FD8591DC
:1008C00093FF81916F01882309F4ABC1853239F41C
:1008D00093FD859193FF81916F01853229F4B701D2
:1008E00090E00E943106E7CF512C312C20E02032DD
:1008F000A0F48B3269F030F4803259F0833269F41D
:1009000020612CC08D3239F0803339F4216026C04B
:100910002260246023C0286021C027FD27C030ED5D
:10092000380F3A3078F426FF06C0FAE05F9E300DAB
:100930001124532E13C08AE0389E300D1124332E1B
:1009400020620CC08E3221F426FD6BC1206406C0EB
:100950008C3611F4206802C0883641F4F60193FD0C
:10096000859193FF81916F018111C1CF982F9F7D58
:100970009554933028F40C5F1F4FFFE3F9830DC0AB
:10098000833631F0833771F0833509F05BC022C0C4
:10099000F801808189830E5F1F4F44244394512CBA
:1009A000540115C03801F2E06F0E711CF801A080EF
:1009B000B18026FF03C0652D70E002C06FEF7FEFAE
:1009C000C5012C870E9426062C0183012C852F77D8
:1009D000222E17C03801F2E06F0E711CF801A080C2
:1009E000B18026FF03C0652D70E002C06FEF7FEF7E
:1009F000C5012C870E941B062C012C852068222E05
:100A0000830123FC1BC0832D90E048165906B0F4E7
:100A1000B70180E290E00E9431063A94F4CFF501EC
:100A200027FC859127FE81915F01B70190E00E942C
:100A3000310631103A94F1E04F1A51084114510433
:100A400071F7E5C0843611F0893639F5F80127FFD2
:100A500007C060817181828193810C5F1F4F08C044
:100A600060817181882777FD8095982F0E5F1F4FD9
:100A70002F76B22E97FF09C090958095709561955D
:100A80007F4F8F4F9F4F2068B22E2AE030E0A401A5
:100A90000E946306A82EA81844C0853729F42F7E2B
:100AA000B22E2AE030E025C0F22FF97FBF2E8F361C
:100AB000C1F018F4883579F0B4C0803719F0883760
:100AC00021F0AFC02F2F2061B22EB4FE0DC08B2DB0
:100AD0008460B82E09C024FF0AC09F2F9660B92EEB
:100AE00006C028E030E005C020E130E002C020E18F
:100AF00032E0F801B7FE07C0608171818281938185
:100B00000C5F1F4F06C06081718180E090E00E5F36
:100B10001F4FA4010E946306A82EA818FB2DFF7783
:100B2000BF2EB6FE0BC02B2D2E7FA51450F4B4FEA5
:100B30000AC0B2FC08C02B2D2E7E05C07A2C2B2DAE
:100B400003C07A2C01C0752C24FF0DC0FE01EA0DF4
:100B5000F11D8081803311F4297E09C022FF06C077
:100B60007394739404C0822F867809F0739423FDE4
:100B700013C020FF06C05A2C731418F4530C5718D6
:100B8000732C731468F4B70180E290E02C870E9404
:100B9000310673942C85F5CF731410F4371801C007
:100BA000312C24FF12C0B70180E390E02C870E9413
:100BB00031062C8522FF17C021FF03C088E590E095
:100BC00002C088E790E0B7010CC0822F867859F008
:100BD00021FD02C080E201C08BE227FD8DE2B7015A
:100BE00090E00E943106A51438F4B70180E390E04C
:100BF0000E9431065A94F7CFAA94F401EA0DF11D30
:100C00008081B70190E00E943106A110F5CF33201A
:100C100009F451CEB70180E290E00E9431063A9487
:100C2000F6CFF7018681978102C08FEF9FEF2C9658
:100C3000E2E10C94DD06FC0105906150704001106A
:100C4000D8F7809590958E0F9F1F0895FC016150F5
:100C5000704001900110D8F7809590958E0F9F1FDE
:100C600008950F931F93CF93DF93182F092FEB0154
:100C70008B8181FD03C08FEF9FEF20C082FF10C0EA
:100C80004E815F812C813D81421753077CF4E881BE
:100C9000F9819F012F5F3F4F39832883108306C05E
:100CA000E885F985812F0995892B29F72E813F81C8
:100CB0002F5F3F4F3F832E83812F902FDF91CF9166
:100CC0001F910F910895FA01AA27283051F1203180
:100CD00081F1E8946F936E7F6E5F7F4F8F4F9F4FD0
:100CE000AF4FB1E03ED0B4E03CD0670F781F891F12
:100CF0009A1FA11D680F791F8A1F911DA11D6A0FE0
:100D0000711D811D911DA11D20D009F468943F9192
:100D10002AE0269F11243019305D3193DEF6CF0191
:100D20000895462F4770405D4193B3E00FD0C9F757
:100D3000F6CF462F4F70405D4A3318F0495D31FDC4
:100D40004052419302D0A9F7EACFB4E0A695979517
:100D5000879577956795BA95C9F7009761057105ED
:100D600008959B01AC010A2E069457954795379537
:100D70002795BA95C9F7620F731F841F951FA01D91
:100D800008952F923F924F925F926F927F928F922F
:100D90009F92AF92BF92CF92DF92EF92FF920F930A
:100DA0001F93CF93DF93CDB7DEB7CA1BDB0B0FB614
:100DB000F894DEBF0FBECDBF09942A8839884888D1
:100DC0005F846E847D848C849B84AA84B984C88467
:100DD000DF80EE80FD800C811B81AA81B981CE0F5E
:100DE000D11D0FB6F894DEBF0FBECDBFED01089543
:040DF000F894FFCFA5
:100DF40042023C00460032004C6F3A2564207C20BD
:100E040048693A25640054656D703A2564207C2055
:080E140053656C3A25630000F0
:00000001FF
