:100000000C9434000C9451000C9451000C94510049
:100010000C9453000C9451000C9451000C9451001A
:100020000C9451000C9451000C9451000C9451000C
:100030000C9451000C9451000C9451000C945100FC
:100040000C9451000C9451000C9451000C945100EC
:100050000C9451000C9451000C9451000C945100DC
:100060000C9451000C94510011241FBECFEFD8E026
:10007000DEBFCDBF11E0A0E0B1E0E8EDFAE002C0E4
:1000800005900D92A034B107D9F721E0A0E4B1E0CA
:1000900001C01D92A137B207E1F70E9474020C94CF
:1000A0006A050C9400001F920F920FB60F92112454
:1000B0002F933F934F935F936F937F938F939F9370
:1000C0008091590190915A01909341018093400190
:1000D00020915601309157013093700120936F01A8
:1000E000329905C010925A011092590106C041E0A0
:1000F00050E050935A0140935901339905C0109232
:1001000057011092560106C041E050E0509357014C
:10011000409356014091590150915A01481759078F
:1001200041F460915601709157016217730709F409
:10013000C1C061E0609358014115510541F56091DE
:100140005601709157016115710509F05BC081304E
:100150009105C9F440910101413059F440910601E3
:10016000509107014F5F5F4F509307014093060185
:100170000AC040910401509105014F5F5F4F5093B9
:1001800005014093040121303105E1F52BC04130D8
:10019000510509F08FC0609156017091570161308F
:1001A000710509F068C00097C9F440910101413020
:1001B00059F440910601509107014F5F5F4F5093F2
:1001C0000701409306010AC04091040150910501C6
:1001D0004F5F5F4F50930501409304012115310596
:1001E00009F049C080910101813031F4809106010C
:1001F00090910701019718C0809104019091050129
:1002000001971CC06130710509F054C00197D9F005
:10021000232B09F04FC080910101813051F480916E
:1002200006019091070101969093070180930601C2
:1002300041C08091040190910501019690930501C0
:100240008093040137C080910101813051F4809185
:100250000601909107010197909307018093060191
:10026000D7CF8091040190910501019790930501EA
:1002700080930401CDCF672BE9F4892BB9F48091E9
:100280000101813051F4809106019091070101979D
:10029000909307018093060109C080910401909119
:1002A00005010197909305018093040121303105E8
:1002B00009F4B1CF9F918F917F916F915F914F9191
:1002C0003F912F910F900FBE0F901F901895209186
:1002D0000201309103018091040190910501821780
:1002E000930714F42B9A01C02B98209102013091AE
:1002F000030180910601909107012817390714F432
:100300002C9A08952C980895CF9380E00E9424029F
:1003100080910101813011F483E401C088E480936D
:100320000001809105018F93809104018F9380914A
:1003300007018F93809106018F9388E091E09F934E
:100340008F931F92C4E1CF938BE591E09F938F939E
:100350000E948B028BE591E00E94680280E10E947E
:10036000240220910001822F992787FD90959F9369
:100370002F93809103018F93809102018F9386E1E7
:1003800091E09F938F931F92CF9382E491E09F938C
:100390008F930E948B0282E491E00E946802109287
:1003A00058018DB79EB744960FB6F8949EBF0FBE06
:1003B0008DBF80E2CF910C9424024A9905C082E05F
:1003C000809301010E9484014B9905C081E08093D4
:1003D00001010C9484010895E8E6F0E080818260D8
:1003E0008083ECE6F0E080818C6080838AB1806F4E
:1003F0008AB984B18B6184B98AB1837F8AB98BB1A0
:100400008C608BB988B18C6088B908959BB19F705E
:100410009BB99BB1807F892B8BB92998299A299AFE
:1004200029980895CF93C82F28980E9406028C2FF0
:100430008295807F0E9406028FE39FE10197F1F78A
:1004400000C00000CF910895803110F4805801C0A1
:1004500080550C9412028FE59AEE0197F1F700C0D7
:100460000000289880E30E9406028FE19EE4019735
:10047000F1F700C0000080E30E9406028FED91E0DA
:100480000197F1F700C0000080E30E94060280E2BD
:100490000E9406028FE39FE10197F1F700C0000080
:1004A00088E20E9412028FE00C941202CF93C82FB0
:1004B000289A0E9406028C2F8295807F0E94060255
:1004C0008FE39FE10197F1F700C00000CF910895FD
:1004D000CF93DF93EC018991882319F00E94560293
:1004E000FACFDF91CF9108950E94EC010E942B0278
:1004F000789481E00E94120287E291E00E946802F3
:1005000080E10E94240281E391E00E94680280E27F
:100510000E942402FFCFAEE0B0E0E1E9F2E00C94EB
:1005200041050D891E898F89988D26E02C831A83B9
:10053000098397FF02C080E090E801979E838D8336
:10054000AE01455E5F4F698D7A8DCE0101960E94A6
:10055000BB024D815E8157FD0AC02F81388542174D
:1005600053070CF49A01F801E20FF31F10822E9644
:10057000E4E00C945D05ACE0B0E0E1ECF2E00C945A
:1005800033057C016B018A01FC011782168283818D
:1005900081FFBDC1CE0101964C01F7019381F601A7
:1005A00093FD859193FF81916F01882309F4ABC17D
:1005B000853239F493FD859193FF81916F018532E6
:1005C00029F4B70190E00E94A304E7CF512C312C0D
:1005D00020E02032A0F48B3269F030F4803259F000
:1005E000833269F420612CC08D3239F0803339F4C4
:1005F000216026C02260246023C0286021C027FD1E
:1006000027C030ED380F3A3078F426FF06C0FAE004
:100610005F9E300D1124532E13C08AE0389E300D9A
:100620001124332E20620CC08E3221F426FD6BC1C2
:10063000206406C08C3611F4206802C0883641F46C
:10064000F60193FD859193FF81916F018111C1CFD7
:10065000982F9F7D9554933028F40C5F1F4FFFE334
:10066000F9830DC0833631F0833771F0833509F09B
:100670005BC022C0F801808189830E5F1F4F442434
:100680004394512C540115C03801F2E06F0E711CD7
:10069000F801A080B18026FF03C0652D70E002C084
:1006A0006FEF7FEFC5012C870E9498042C01830116
:1006B0002C852F77222E17C03801F2E06F0E711CA7
:1006C000F801A080B18026FF03C0652D70E002C054
:1006D0006FEF7FEFC5012C870E948D042C012C85C4
:1006E0002068222E830123FC1BC0832D90E0481636
:1006F0005906B0F4B70180E290E00E94A3043A9456
:10070000F4CFF50127FC859127FE81915F01B701A8
:1007100090E00E94A30431103A94F1E04F1A51087E
:100720004114510471F7E5C0843611F0893639F56A
:10073000F80127FF07C060817181828193810C5F7E
:100740001F4F08C060817181882777FD8095982FA1
:100750000E5F1F4F2F76B22E97FF09C090958095A0
:10076000709561957F4F8F4F9F4F2068B22E2AE082
:1007700030E0A4010E94D504A82EA81844C08537F3
:1007800029F42F7EB22E2AE030E025C0F22FF97F27
:10079000BF2E8F36C1F018F4883579F0B4C0803799
:1007A00019F0883721F0AFC02F2F2061B22EB4FE90
:1007B0000DC08B2D8460B82E09C024FF0AC09F2F66
:1007C0009660B92E06C028E030E005C020E130E098
:1007D00002C020E132E0F801B7FE07C060817181FC
:1007E000828193810C5F1F4F06C06081718180E020
:1007F00090E00E5F1F4FA4010E94D504A82EA818F8
:10080000FB2DFF77BF2EB6FE0BC02B2D2E7FA51420
:1008100050F4B4FE0AC0B2FC08C02B2D2E7E05C0D9
:100820007A2C2B2D03C07A2C01C0752C24FF0DC00F
:10083000FE01EA0DF11D8081803311F4297E09C08B
:1008400022FF06C07394739404C0822F867809F047
:10085000739423FD13C020FF06C05A2C731418F4A0
:10086000530C5718732C731468F4B70180E290E0AE
:100870002C870E94A30473942C85F5CF731410F475
:10088000371801C0312C24FF12C0B70180E390E07B
:100890002C870E94A3042C8522FF17C021FF03C0D0
:1008A00088E590E002C088E790E0B7010CC0822F95
:1008B000867859F021FD02C080E201C08BE227FD5D
:1008C0008DE2B70190E00E94A304A51438F4B701AB
:1008D00080E390E00E94A3045A94F7CFAA94F40115
:1008E000EA0DF11D8081B70190E00E94A304A110E0
:1008F000F5CF332009F451CEB70180E290E00E9499
:10090000A3043A94F6CFF7018681978102C08FEF56
:100910009FEF2C96E2E10C944F05FC01059061508D
:1009200070400110D8F7809590958E0F9F1F089505
:10093000FC016150704001900110D8F780959095AE
:100940008E0F9F1F08950F931F93CF93DF93182F40
:10095000092FEB018B8181FD03C08FEF9FEF20C03A
:1009600082FF10C04E815F812C813D814217530769
:100970007CF4E881F9819F012F5F3F4F3983288301
:10098000108306C0E885F985812F0995892B29F701
:100990002E813F812F5F3F4F3F832E83812F902FEA
:1009A000DF91CF911F910F910895FA01AA27283066
:1009B00051F1203181F1E8946F936E7F6E5F7F4F2C
:1009C0008F4F9F4FAF4FB1E03ED0B4E03CD0670FA8
:1009D000781F891F9A1FA11D680F791F8A1F911DFB
:1009E000A11D6A0F711D811D911DA11D20D009F44B
:1009F00068943F912AE0269F11243019305D31938D
:100A0000DEF6CF010895462F4770405D4193B3E075
:100A10000FD0C9F7F6CF462F4F70405D4A3318F01C
:100A2000495D31FD4052419302D0A9F7EACFB4E0CD
:100A3000A6959795879577956795BA95C9F7009785
:100A40006105710508959B01AC010A2E0694579526
:100A5000479537952795BA95C9F7620F731F841F7D
:100A6000951FA01D08952F923F924F925F926F9213
:100A70007F928F929F92AF92BF92CF92DF92EF922E
:100A8000FF920F931F93CF93DF93CDB7DEB7CA1BAF
:100A9000DB0B0FB6F894DEBF0FBECDBF09942A88DA
:100AA000398848885F846E847D848C849B84AA8482
:100AB000B984C884DF80EE80FD800C811B81AA810F
:100AC000B981CE0FD11D0FB6F894DEBF0FBECDBFDA
:080AD000ED010895F894FFCF39
:100AD80042023C00460032004C6F3A2564207C20DC
:100AE80048693A25640054656D703A2564207C2075
:100AF80053656C3A256300457520736F7520756DD5
:100B0800007465726D6F737461746F21203A2900E7
:00000001FF
